{
  "_format": "hh-sol-artifact-1",
  "contractName": "ScholarshipManager",
  "sourceName": "contracts/ScholarshipManager.sol",
  "abi": [
    {
      "inputs": [],
      "stateMutability": "nonpayable",
      "type": "constructor"
    },
    {
      "inputs": [
        {
          "internalType": "address",
          "name": "owner",
          "type": "address"
        }
      ],
      "name": "OwnableInvalidOwner",
      "type": "error"
    },
    {
      "inputs": [
        {
          "internalType": "address",
          "name": "account",
          "type": "address"
        }
      ],
      "name": "OwnableUnauthorizedAccount",
      "type": "error"
    },
    {
      "anonymous": false,
      "inputs": [
        {
          "indexed": true,
          "internalType": "uint256",
          "name": "id",
          "type": "uint256"
        },
        {
          "indexed": false,
          "internalType": "uint256",
          "name": "index",
          "type": "uint256"
        },
        {
          "indexed": false,
          "internalType": "address",
          "name": "applicant",
          "type": "address"
        }
      ],
      "name": "ApplicationApproved",
      "type": "event"
    },
    {
      "anonymous": false,
      "inputs": [
        {
          "indexed": true,
          "internalType": "uint256",
          "name": "id",
          "type": "uint256"
        },
        {
          "indexed": true,
          "internalType": "address",
          "name": "applicant",
          "type": "address"
        },
        {
          "indexed": false,
          "internalType": "uint256",
          "name": "index",
          "type": "uint256"
        }
      ],
      "name": "Applied",
      "type": "event"
    },
    {
      "anonymous": false,
      "inputs": [
        {
          "indexed": true,
          "internalType": "address",
          "name": "previousOwner",
          "type": "address"
        },
        {
          "indexed": true,
          "internalType": "address",
          "name": "newOwner",
          "type": "address"
        }
      ],
      "name": "OwnershipTransferred",
      "type": "event"
    },
    {
      "anonymous": false,
      "inputs": [
        {
          "indexed": true,
          "internalType": "uint256",
          "name": "id",
          "type": "uint256"
        },
        {
          "indexed": false,
          "internalType": "uint256",
          "name": "index",
          "type": "uint256"
        },
        {
          "indexed": false,
          "internalType": "address",
          "name": "to",
          "type": "address"
        },
        {
          "indexed": false,
          "internalType": "uint256",
          "name": "amount",
          "type": "uint256"
        }
      ],
      "name": "Paid",
      "type": "event"
    },
    {
      "anonymous": false,
      "inputs": [
        {
          "indexed": true,
          "internalType": "uint256",
          "name": "id",
          "type": "uint256"
        },
        {
          "indexed": false,
          "internalType": "string",
          "name": "title",
          "type": "string"
        },
        {
          "indexed": false,
          "internalType": "uint256",
          "name": "amount",
          "type": "uint256"
        },
        {
          "indexed": false,
          "internalType": "uint256",
          "name": "slots",
          "type": "uint256"
        },
        {
          "indexed": false,
          "internalType": "uint256",
          "name": "deadline",
          "type": "uint256"
        }
      ],
      "name": "ScholarshipCreated",
      "type": "event"
    },
    {
      "inputs": [
        {
          "internalType": "uint256",
          "name": "",
          "type": "uint256"
        },
        {
          "internalType": "uint256",
          "name": "",
          "type": "uint256"
        }
      ],
      "name": "applications",
      "outputs": [
        {
          "internalType": "address",
          "name": "applicant",
          "type": "address"
        },
        {
          "internalType": "string",
          "name": "metadata",
          "type": "string"
        },
        {
          "internalType": "enum ScholarshipManager.Status",
          "name": "status",
          "type": "uint8"
        }
      ],
      "stateMutability": "view",
      "type": "function"
    },
    {
      "inputs": [
        {
          "internalType": "uint256",
          "name": "scholarshipId",
          "type": "uint256"
        },
        {
          "internalType": "string",
          "name": "metadata",
          "type": "string"
        }
      ],
      "name": "applyForScholarship",
      "outputs": [],
      "stateMutability": "nonpayable",
      "type": "function"
    },
    {
      "inputs": [
        {
          "internalType": "uint256",
          "name": "scholarshipId",
          "type": "uint256"
        },
        {
          "internalType": "uint256",
          "name": "index",
          "type": "uint256"
        }
      ],
      "name": "approveApplicant",
      "outputs": [],
      "stateMutability": "nonpayable",
      "type": "function"
    },
    {
      "inputs": [
        {
          "internalType": "string",
          "name": "title",
          "type": "string"
        },
        {
          "internalType": "uint256",
          "name": "amount",
          "type": "uint256"
        },
        {
          "internalType": "uint256",
          "name": "slots",
          "type": "uint256"
        },
        {
          "internalType": "uint256",
          "name": "deadline",
          "type": "uint256"
        }
      ],
      "name": "createScholarship",
      "outputs": [],
      "stateMutability": "payable",
      "type": "function"
    },
    {
      "inputs": [],
      "name": "emergencyWithdraw",
      "outputs": [],
      "stateMutability": "nonpayable",
      "type": "function"
    },
    {
      "inputs": [],
      "name": "nextScholarshipId",
      "outputs": [
        {
          "internalType": "uint256",
          "name": "",
          "type": "uint256"
        }
      ],
      "stateMutability": "view",
      "type": "function"
    },
    {
      "inputs": [],
      "name": "owner",
      "outputs": [
        {
          "internalType": "address",
          "name": "",
          "type": "address"
        }
      ],
      "stateMutability": "view",
      "type": "function"
    },
    {
      "inputs": [
        {
          "internalType": "uint256",
          "name": "scholarshipId",
          "type": "uint256"
        },
        {
          "internalType": "uint256",
          "name": "index",
          "type": "uint256"
        }
      ],
      "name": "payApplicant",
      "outputs": [],
      "stateMutability": "nonpayable",
      "type": "function"
    },
    {
      "inputs": [],
      "name": "renounceOwnership",
      "outputs": [],
      "stateMutability": "nonpayable",
      "type": "function"
    },
    {
      "inputs": [
        {
          "internalType": "uint256",
          "name": "",
          "type": "uint256"
        }
      ],
      "name": "scholarships",
      "outputs": [
        {
          "internalType": "uint256",
          "name": "id",
          "type": "uint256"
        },
        {
          "internalType": "string",
          "name": "title",
          "type": "string"
        },
        {
          "internalType": "uint256",
          "name": "amount",
          "type": "uint256"
        },
        {
          "internalType": "uint256",
          "name": "slots",
          "type": "uint256"
        },
        {
          "internalType": "uint256",
          "name": "deadline",
          "type": "uint256"
        },
        {
          "internalType": "uint256",
          "name": "totalApplicants",
          "type": "uint256"
        }
      ],
      "stateMutability": "view",
      "type": "function"
    },
    {
      "inputs": [
        {
          "internalType": "address",
          "name": "newOwner",
          "type": "address"
        }
      ],
      "name": "transferOwnership",
      "outputs": [],
      "stateMutability": "nonpayable",
      "type": "function"
    },
    {
      "stateMutability": "payable",
      "type": "receive"
    }
  ],
  "bytecode": "0x60806040523480156200001157600080fd5b5033600073ffffffffffffffffffffffffffffffffffffffff168173ffffffffffffffffffffffffffffffffffffffff1603620000885760006040517f1e4fbdf70000000000000000000000000000000000000000000000000000000081526004016200007f9190620001a9565b60405180910390fd5b6200009981620000a060201b60201c565b50620001c6565b60008060009054906101000a900473ffffffffffffffffffffffffffffffffffffffff169050816000806101000a81548173ffffffffffffffffffffffffffffffffffffffff021916908373ffffffffffffffffffffffffffffffffffffffff1602179055508173ffffffffffffffffffffffffffffffffffffffff168173ffffffffffffffffffffffffffffffffffffffff167f8be0079c531659141344cd1fd0a4f28419497f9722a3daafe3b4186f6b6457e060405160405180910390a35050565b600073ffffffffffffffffffffffffffffffffffffffff82169050919050565b6000620001918262000164565b9050919050565b620001a38162000184565b82525050565b6000602082019050620001c0600083018462000198565b92915050565b611dcc80620001d66000396000f3fe6080604052600436106100a05760003560e01c80638da5cb5b116100645780638da5cb5b14610196578063c6c08a58146101c1578063d84c01b3146101ea578063db2e21bc14610215578063e7dd02d21461022c578063f2fde38b14610248576100a7565b806339dc58c6146100ac5780633a2146b8146100ee578063715018a61461011757806372b4f6fe1461012e5780637a870b6314610157576100a7565b366100a757005b600080fd5b3480156100b857600080fd5b506100d360048036038101906100ce9190610f85565b610271565b6040516100e596959493929190611051565b60405180910390f35b3480156100fa57600080fd5b50610115600480360381019061011091906110b9565b610335565b005b34801561012357600080fd5b5061012c6104d4565b005b34801561013a57600080fd5b50610155600480360381019061015091906110b9565b6104e8565b005b34801561016357600080fd5b5061017e600480360381019061017991906110b9565b6107c1565b60405161018d939291906111b1565b60405180910390f35b3480156101a257600080fd5b506101ab6108bd565b6040516101b891906111ef565b60405180910390f35b3480156101cd57600080fd5b506101e860048036038101906101e3919061133f565b6108e6565b005b3480156101f657600080fd5b506101ff610b18565b60405161020c919061139b565b60405180910390f35b34801561022157600080fd5b5061022a610b1e565b005b610246600480360381019061024191906113b6565b610bdc565b005b34801561025457600080fd5b5061026f600480360381019061026a9190611465565b610d62565b005b600260205280600052604060002060009150905080600001549080600101805461029a906114c1565b80601f01602080910402602001604051908101604052809291908181526020018280546102c6906114c1565b80156103135780601f106102e857610100808354040283529160200191610313565b820191906000526020600020905b8154815290600101906020018083116102f657829003601f168201915b5050505050908060020154908060030154908060040154908060050154905086565b61033d610de8565b60036000838152602001908152602001600020805490508110610395576040517f08c379a000000000000000000000000000000000000000000000000000000000815260040161038c9061153e565b60405180910390fd5b60006003600084815260200190815260200160002082815481106103bc576103bb61155e565b5b90600052602060002090600302019050600160038111156103e0576103df61113a565b5b8160020160009054906101000a900460ff1660038111156104045761040361113a565b5b14610444576040517f08c379a000000000000000000000000000000000000000000000000000000000815260040161043b906115ff565b60405180910390fd5b60028160020160006101000a81548160ff0219169083600381111561046c5761046b61113a565b5b0217905550827f3d2e0693b8e181cfefbbbca8bbacf348ab5813516ca1ec12ef15710f48dd31bb838360000160009054906101000a900473ffffffffffffffffffffffffffffffffffffffff166040516104c792919061161f565b60405180910390a2505050565b6104dc610de8565b6104e66000610e6f565b565b6104f0610de8565b60036000838152602001908152602001600020805490508110610548576040517f08c379a000000000000000000000000000000000000000000000000000000000815260040161053f9061153e565b60405180910390fd5b600060036000848152602001908152602001600020828154811061056f5761056e61155e565b5b906000526020600020906003020190506000600260008581526020019081526020016000209050600260038111156105aa576105a961113a565b5b8260020160009054906101000a900460ff1660038111156105ce576105cd61113a565b5b1461060e576040517f08c379a000000000000000000000000000000000000000000000000000000000815260040161060590611694565b60405180910390fd5b8060020154471015610655576040517f08c379a000000000000000000000000000000000000000000000000000000000815260040161064c90611700565b60405180910390fd5b60038260020160006101000a81548160ff0219169083600381111561067d5761067c61113a565b5b021790555060008260000160009054906101000a900473ffffffffffffffffffffffffffffffffffffffff1673ffffffffffffffffffffffffffffffffffffffff1682600201546040516106d090611751565b60006040518083038185875af1925050503d806000811461070d576040519150601f19603f3d011682016040523d82523d6000602084013e610712565b606091505b5050905080610756576040517f08c379a000000000000000000000000000000000000000000000000000000000815260040161074d906117b2565b60405180910390fd5b847f8a932cfa1f2c4405ecf83ef9b014d4e08b84019e45aac0cfa6936bc57668e425858560000160009054906101000a900473ffffffffffffffffffffffffffffffffffffffff1685600201546040516107b2939291906117d2565b60405180910390a25050505050565b600360205281600052604060002081815481106107dd57600080fd5b9060005260206000209060030201600091509150508060000160009054906101000a900473ffffffffffffffffffffffffffffffffffffffff1690806001018054610827906114c1565b80601f0160208091040260200160405190810160405280929190818152602001828054610853906114c1565b80156108a05780601f10610875576101008083540402835291602001916108a0565b820191906000526020600020905b81548152906001019060200180831161088357829003601f168201915b5050505050908060020160009054906101000a900460ff16905083565b60008060009054906101000a900473ffffffffffffffffffffffffffffffffffffffff16905090565b60006002600084815260200190815260200160002090506000816004015411610944576040517f08c379a000000000000000000000000000000000000000000000000000000000815260040161093b90611855565b60405180910390fd5b806004015442111561098b576040517f08c379a0000000000000000000000000000000000000000000000000000000008152600401610982906118c1565b60405180910390fd5b6003600084815260200190815260200160002060405180606001604052803373ffffffffffffffffffffffffffffffffffffffff168152602001848152602001600160038111156109df576109de61113a565b5b815250908060018154018082558091505060019003906000526020600020906003020160009091909190915060008201518160000160006101000a81548173ffffffffffffffffffffffffffffffffffffffff021916908373ffffffffffffffffffffffffffffffffffffffff1602179055506020820151816001019081610a679190611a8d565b5060408201518160020160006101000a81548160ff02191690836003811115610a9357610a9261113a565b5b02179055505050806005016000815480929190610aaf90611b8e565b91905055503373ffffffffffffffffffffffffffffffffffffffff16837f77813f331a0748806a13ce2604421e1b5fbfbbc9d1f20751a8f218e3608965e760018460050154610afe9190611bd6565b604051610b0b919061139b565b60405180910390a3505050565b60015481565b610b26610de8565b6000610b306108bd565b73ffffffffffffffffffffffffffffffffffffffff1647604051610b5390611751565b60006040518083038185875af1925050503d8060008114610b90576040519150601f19603f3d011682016040523d82523d6000602084013e610b95565b606091505b5050905080610bd9576040517f08c379a0000000000000000000000000000000000000000000000000000000008152600401610bd0906117b2565b60405180910390fd5b50565b610be4610de8565b428111610c26576040517f08c379a0000000000000000000000000000000000000000000000000000000008152600401610c1d90611c56565b60405180910390fd5b8183610c329190611c76565b341015610c74576040517f08c379a0000000000000000000000000000000000000000000000000000000008152600401610c6b90611d2a565b60405180910390fd5b6040518060c0016040528060015481526020018581526020018481526020018381526020018281526020016000815250600260006001548152602001908152602001600020600082015181600001556020820151816001019081610cd89190611a8d565b5060408201518160020155606082015181600301556080820151816004015560a082015181600501559050506001547fa9fe89ef393b19fc34bb09fcb22ac19652c470364a9a41fd7822884a394d239e85858585604051610d3c9493929190611d4a565b60405180910390a260016000815480929190610d5790611b8e565b919050555050505050565b610d6a610de8565b600073ffffffffffffffffffffffffffffffffffffffff168173ffffffffffffffffffffffffffffffffffffffff1603610ddc5760006040517f1e4fbdf7000000000000000000000000000000000000000000000000000000008152600401610dd391906111ef565b60405180910390fd5b610de581610e6f565b50565b610df0610f33565b73ffffffffffffffffffffffffffffffffffffffff16610e0e6108bd565b73ffffffffffffffffffffffffffffffffffffffff1614610e6d57610e31610f33565b6040517f118cdaa7000000000000000000000000000000000000000000000000000000008152600401610e6491906111ef565b60405180910390fd5b565b60008060009054906101000a900473ffffffffffffffffffffffffffffffffffffffff169050816000806101000a81548173ffffffffffffffffffffffffffffffffffffffff021916908373ffffffffffffffffffffffffffffffffffffffff1602179055508173ffffffffffffffffffffffffffffffffffffffff168173ffffffffffffffffffffffffffffffffffffffff167f8be0079c531659141344cd1fd0a4f28419497f9722a3daafe3b4186f6b6457e060405160405180910390a35050565b600033905090565b6000604051905090565b600080fd5b600080fd5b6000819050919050565b610f6281610f4f565b8114610f6d57600080fd5b50565b600081359050610f7f81610f59565b92915050565b600060208284031215610f9b57610f9a610f45565b5b6000610fa984828501610f70565b91505092915050565b610fbb81610f4f565b82525050565b600081519050919050565b600082825260208201905092915050565b60005b83811015610ffb578082015181840152602081019050610fe0565b60008484015250505050565b6000601f19601f8301169050919050565b600061102382610fc1565b61102d8185610fcc565b935061103d818560208601610fdd565b61104681611007565b840191505092915050565b600060c0820190506110666000830189610fb2565b81810360208301526110788188611018565b90506110876040830187610fb2565b6110946060830186610fb2565b6110a16080830185610fb2565b6110ae60a0830184610fb2565b979650505050505050565b600080604083850312156110d0576110cf610f45565b5b60006110de85828601610f70565b92505060206110ef85828601610f70565b9150509250929050565b600073ffffffffffffffffffffffffffffffffffffffff82169050919050565b6000611124826110f9565b9050919050565b61113481611119565b82525050565b7f4e487b7100000000000000000000000000000000000000000000000000000000600052602160045260246000fd5b6004811061117a5761117961113a565b5b50565b600081905061118b82611169565b919050565b600061119b8261117d565b9050919050565b6111ab81611190565b82525050565b60006060820190506111c6600083018661112b565b81810360208301526111d88185611018565b90506111e760408301846111a2565b949350505050565b6000602082019050611204600083018461112b565b92915050565b600080fd5b600080fd5b7f4e487b7100000000000000000000000000000000000000000000000000000000600052604160045260246000fd5b61124c82611007565b810181811067ffffffffffffffff8211171561126b5761126a611214565b5b80604052505050565b600061127e610f3b565b905061128a8282611243565b919050565b600067ffffffffffffffff8211156112aa576112a9611214565b5b6112b382611007565b9050602081019050919050565b82818337600083830152505050565b60006112e26112dd8461128f565b611274565b9050828152602081018484840111156112fe576112fd61120f565b5b6113098482856112c0565b509392505050565b600082601f8301126113265761132561120a565b5b81356113368482602086016112cf565b91505092915050565b6000806040838503121561135657611355610f45565b5b600061136485828601610f70565b925050602083013567ffffffffffffffff81111561138557611384610f4a565b5b61139185828601611311565b9150509250929050565b60006020820190506113b06000830184610fb2565b92915050565b600080600080608085870312156113d0576113cf610f45565b5b600085013567ffffffffffffffff8111156113ee576113ed610f4a565b5b6113fa87828801611311565b945050602061140b87828801610f70565b935050604061141c87828801610f70565b925050606061142d87828801610f70565b91505092959194509250565b61144281611119565b811461144d57600080fd5b50565b60008135905061145f81611439565b92915050565b60006020828403121561147b5761147a610f45565b5b600061148984828501611450565b91505092915050565b7f4e487b7100000000000000000000000000000000000000000000000000000000600052602260045260246000fd5b600060028204905060018216806114d957607f821691505b6020821081036114ec576114eb611492565b5b50919050565b7f496e76616c6964206170706c69636174696f6e20696e64657800000000000000600082015250565b6000611528601983610fcc565b9150611533826114f2565b602082019050919050565b600060208201905081810360008301526115578161151b565b9050919050565b7f4e487b7100000000000000000000000000000000000000000000000000000000600052603260045260246000fd5b7f4170706c69636174696f6e206e6f7420696e204170706c69656420737461747560008201527f7300000000000000000000000000000000000000000000000000000000000000602082015250565b60006115e9602183610fcc565b91506115f48261158d565b604082019050919050565b60006020820190508181036000830152611618816115dc565b9050919050565b60006040820190506116346000830185610fb2565b611641602083018461112b565b9392505050565b7f4170706c69636174696f6e206e6f7420617070726f7665642079657400000000600082015250565b600061167e601c83610fcc565b915061168982611648565b602082019050919050565b600060208201905081810360008301526116ad81611671565b9050919050565b7f436f6e747261637420696e73756666696369656e742066756e64730000000000600082015250565b60006116ea601b83610fcc565b91506116f5826116b4565b602082019050919050565b60006020820190508181036000830152611719816116dd565b9050919050565b600081905092915050565b50565b600061173b600083611720565b91506117468261172b565b600082019050919050565b600061175c8261172e565b9150819050919050565b7f5472616e73666572206661696c65640000000000000000000000000000000000600082015250565b600061179c600f83610fcc565b91506117a782611766565b602082019050919050565b600060208201905081810360008301526117cb8161178f565b9050919050565b60006060820190506117e76000830186610fb2565b6117f4602083018561112b565b6118016040830184610fb2565b949350505050565b7f5363686f6c61727368697020646f6573206e6f74206578697374000000000000600082015250565b600061183f601a83610fcc565b915061184a82611809565b602082019050919050565b6000602082019050818103600083015261186e81611832565b9050919050565b7f446561646c696e65207061737365640000000000000000000000000000000000600082015250565b60006118ab600f83610fcc565b91506118b682611875565b602082019050919050565b600060208201905081810360008301526118da8161189e565b9050919050565b60008190508160005260206000209050919050565b60006020601f8301049050919050565b600082821b905092915050565b6000600883026119437fffffffffffffffffffffffffffffffffffffffffffffffffffffffffffffffff82611906565b61194d8683611906565b95508019841693508086168417925050509392505050565b6000819050919050565b600061198a61198561198084610f4f565b611965565b610f4f565b9050919050565b6000819050919050565b6119a48361196f565b6119b86119b082611991565b848454611913565b825550505050565b600090565b6119cd6119c0565b6119d881848461199b565b505050565b5b818110156119fc576119f16000826119c5565b6001810190506119de565b5050565b601f821115611a4157611a12816118e1565b611a1b846118f6565b81016020851015611a2a578190505b611a3e611a36856118f6565b8301826119dd565b50505b505050565b600082821c905092915050565b6000611a6460001984600802611a46565b1980831691505092915050565b6000611a7d8383611a53565b9150826002028217905092915050565b611a9682610fc1565b67ffffffffffffffff811115611aaf57611aae611214565b5b611ab982546114c1565b611ac4828285611a00565b600060209050601f831160018114611af75760008415611ae5578287015190505b611aef8582611a71565b865550611b57565b601f198416611b05866118e1565b60005b82811015611b2d57848901518255600182019150602085019450602081019050611b08565b86831015611b4a5784890151611b46601f891682611a53565b8355505b6001600288020188555050505b505050505050565b7f4e487b7100000000000000000000000000000000000000000000000000000000600052601160045260246000fd5b6000611b9982610f4f565b91507fffffffffffffffffffffffffffffffffffffffffffffffffffffffffffffffff8203611bcb57611bca611b5f565b5b600182019050919050565b6000611be182610f4f565b9150611bec83610f4f565b9250828203905081811115611c0457611c03611b5f565b5b92915050565b7f446561646c696e65206d75737420626520696e20746865206675747572650000600082015250565b6000611c40601e83610fcc565b9150611c4b82611c0a565b602082019050919050565b60006020820190508181036000830152611c6f81611c33565b9050919050565b6000611c8182610f4f565b9150611c8c83610f4f565b9250828202611c9a81610f4f565b91508282048414831517611cb157611cb0611b5f565b5b5092915050565b7f4d7573742066756e6420746865207363686f6c61727368697020286d73672e7660008201527f616c7565203c20746f74616c20616d6f756e7429000000000000000000000000602082015250565b6000611d14603483610fcc565b9150611d1f82611cb8565b604082019050919050565b60006020820190508181036000830152611d4381611d07565b9050919050565b60006080820190508181036000830152611d648187611018565b9050611d736020830186610fb2565b611d806040830185610fb2565b611d8d6060830184610fb2565b9594505050505056fea2646970667358221220b30cff3b8aaab33be9e21d7bcddc4c28c75126c6535296c19ffd7634facad85664736f6c63430008140033",
  "linkReferences": {},
  "deployedLinkReferences": {}
}